:020000022000DC
:106000000000012019620200016202000362020026
:10601000056202000762020009620200000000003F
:106020000000000000000000000000000B62020001
:106030000D620200000000000F6202001162020007
:10604000E5130300136202004921030013620200FA
:106050001362020013620200452003001362020073
:106060001362020013620200136202001362020054
:106070001362020013620200136202001362020044
:1060800013620200C13A03001362020013620200AD
:106090001362020013620200C9910300136202003E
:1060A0001362020013620200136202001362020014
:1060B00013620200136202000000000000000000F2
:1060C00013620200136202001362020013620200F4
:1060D000136202001362020013620200000000005B
:1060E00000000000000000000000000000000000B0
:1060F00000000000000000000000000000000000A0
:10610000000000000000000000000000000000008F
:10611000000000000000000000000000000000007F
:10612000000000000000000000000000000000006F
:10613000000000000000000000000000000000005F
:10614000000000000000000000000000000000004F
:10615000000000000000000000000000000000003F
:10616000000000000000000000000000000000002F
:10617000000000000000000000000000000000001F
:10618000000000000000000000000000000000000F
:1061900000000000000000000000000000000000FF
:1061A00000000000000000000000000000000000EF
:1061B00000000000000000000000000000000000DF
:1061C00000000000000000000000000000000000CF
:1061D00000000000000000000000000000000000BF
:1061E00000000000000000000000000000000000AF
:1061F000000000000000000000000000000000009F
:10620000FEE7FEE7FEE7FEE7FEE7FEE7FEE7FEE766
:10621000FEE7FEE700F002B8FFF7FCBF0F484FF0C3
:106220000701884385460E4880470E48016841F4BF
:1062300070010160BFF34F8FBFF36F8F00F01AB88A
:1062400009480A490A4A884207D0521A05D00378F9
:1062500001300B700131013AF9D170470000012083
:10626000458E020088ED00E01C9B030060220020A8
:1062700074220020344935480A1A02D0072291437B
:106280008D46334933480A1A06D00722914381F3D9
:106290000988022282F314882F483049304A00F0DE
:1062A00041F830483049314A00F03CF83048314933
:1062B000314A00F037F831483149324A00F032F8BB
:1062C00031483249324A00F02DF832483249334AD7
:1062D00000F028F832483349334A00F023F83348B5
:1062E0003349002200F029F832483349002200F0F7
:1062F00024F832483249091A13F050FB314A9047CA
:106300001F482049884205D00268043003B49047F2
:1063100003BCF7E700208646EC46002000212A4A0D
:106320009047FEE7884207D0521A05D00378013023
:106330000B700131013AF9D17047884202D00270E6
:106340000130FAE7704700000000012000E0002063
:106350000000012000000120E0DB03007422002087
:1063600098230020CC630200CC630200B0990300A4
:10637000E0DB03007422002074220020309B030025
:10638000309B0300309B0300309B0300309B0300D5
:10639000309B0300309B0300309B0300DDDB0300D8
:1063A00004DD030098230020982300209823002078
:1063B000DC370020DC370020DC370020DC37002011
:0C63C000DC57002041620200E976020078
:1063CC00A8DF704700BF1846AADF704700BF184609
:1063DC00ACDF704700BF1846AEDF704700BF1846F1
:1063EC0062DF704700BF184600B583B00190019B77
:1063FC001B68184600F032F80346002B04D10549FF
:10640C004FF4F67000F0F0FA4FF0A043184603B0CA
:10641C005DF804FB309B030000B585B0019001AB27
:10642C001846FFF7E1FF0390039BD3F80435029362
:10643C00029BDA43019B012101FA03F31A40039BEF
:10644C00C3F80825019B01229A40029B1A40039B2A
:10645C00C3F80C2500BF05B05DF804FB84B00190B7
:10646C00019B5B09029300230393029B002B03D136
:10647C004FF0FF33039300BF019B03F01F03019305
:10648C00039A019B22FA03F303F00103002B14BFC0
:10649C0001230023DBB2184604B0704700B585B069
:1064AC0001900091009B9A88019BDA8103238DF85F
:1064BC000C30019B1B6803AA11460198984700BF3A
:1064CC0005B05DF804FB00B585B001900091019B0F
:1064DC004FF6FF72DA8102238DF80C30019B1B689A
:1064EC0003AA11460198984700BF05B05DF804FB5C
:1064FC0000B587B001900091009B06330593059B76
:10650C001A88019BDB889A422BD11420FFF784FF59
:10651C00274A284BD31ADB081B0443F003032649F4
:10652C00184611F0D7FD224A224BD31ADB081B0464
:10653C0043F00300059B1B7B1A46204911F0D8FD44
:10654C00059B0C331946019800F0B4F90490049B98
:10655C000393039B002B04D0194A3A2103980CF0A7
:10656C002DF9059B1A88019B5B899A421CD1059BCE
:10657C005B89022B18D1019B1B68002B14D0059B47
:10658C000C33184604F064FE0346002B03D00023A2
:10659C008DF8083002E001238DF80830019B1B6850
:1065AC0002AA11460198984700BF07B05DF804FB9A
:1065BC006C9A0300449A0300609B0300809B0300C9
:1065CC008C9B030000B585B001900091009B039358
:1065DC00194A1A4BD31ADB081B0443F00300019B26
:1065EC001B881A46164911F083FD039B002B1CD007
:1065FC00019B002B19D0019B1B88502B10D0502BCA
:10660C0015DC102B02D0112B05D010E0019903984A
:10661C00FFF744FF0CE001990398FFF754FF07E0E4
:10662C0001990398FFF764FF02E000BF00E000BF90
:10663C0005B05DF804FB00BF6C9A0300449A03009C
:10664C00109C030000B593B00190009109AB03229C
:10665C000021184613F048F99DF82430012262F30A
:10666C0003038DF824309DF82430012262F30713C4
:10667C008DF824309DF82530012262F303038DF848
:10668C0025309DF82530012262F307138DF8253053
:10669C00009B5B798DF825309DF82630012262F342
:1066AC0042038DF826300AAB1C220021184613F049
:1066BC001BF99DF8283043F002038DF828309DF823
:1066CC00283043F008038DF828309DF8283043F02B
:1066DC0010038DF8283000230B9300230D93002317
:1066EC000E9309AB0F9300231093019B1B7C8DF829
:1066FC000E3041F20143ADF80C3002AB0322002105
:10670C00184613F0F1F8009B9B798DF80830009B2C
:10671C00DB798DF809309DF80A30012262F34203CF
:10672C008DF80A309DF80A306FF3C3038DF80A30E8
:10673C009DF80A306FF304138DF80A309DF80A3077
:10674C006FF300038DF80A3004AB142200211846B5
:10675C0013F0CAF803AB049302AB05930323ADF813
:10676C0018300023ADF81A300323ADF81C30019B10
:10677C009888019B063304AA0AA9FFF725FE1190FD
:10678C00119B002B01D0119B00E00023184613B085
:10679C005DF804FB10B58AB001900091019B002BB1
:1067AC0002D0009B002B01D10E233FE0009B1A6806
:1067BC00019B1A60019B4FF6FF72DA811D4B03ACF3
:1067CC000FCB84E80F00019B03F1100203AB1146C1
:1067DC001846FFF705FE0990099B0893089B002BB0
:1067EC0001D0089B22E0019B1B7C8DF81E304FF4DE
:1067FC00A053ADF81C30019B1A1D07AB19460120A4
:10680C00FFF7DEFD0990099B002B01D0099B0DE0E1
:10681C0000990198FFF716FF0990099B002B01D0F6
:10682C00099B03E0019800F007F8034618460AB0EC
:10683C0010BD00BF389C030000B587B00190194A09
:10684C00194BD31ADB081B0443F0030317491846F2
:10685C0011F040FC019B002B01D10E231DE0144BC9
:10686C001B88ADF8143000238DF8163003AB0822CA
:10687C000021184613F038F80323ADF80C30002330
:10688C00ADF80E3005AB0493019BD889019BDB88D6
:10689C0003AA1946FFF79CFD0346184607B05DF89E
:1068AC0004FB00BF6C9A0300449A0300489C03004D
:1068BC006C9C030000B58BB001900091394A3A4BA7
:1068CC00D31ADB081B0443F003033849184611F0B4
:1068DC0001FC019B002B02D0009B002B01D10E234D
:1068EC005BE00023099307AB08220021184612F045
:1068FC00FBFF0323ADF81C300023ADF81E30009BCA
:10690C000893019BD889019BDB8807AA1946FFF7DE
:10691C005FFD0990099B002B01D0099B3DE0019B79
:10692C00DB894FF6FF72934229D003AB1022002172
:10693C00184612F0D9FF019BDB88ADF80C3001230F
:10694C008DF80E30BDF81E30ADF8103007AB059346
:10695C00089B0693019BDB8903AA11461846FFF797
:10696C003BFD09900F4A104BD31ADB081B0443F074
:10697C000303099A0E49184611F0BAFB0CE00823E0
:10698C000993084A084BD31ADB081B0443F0030392
:10699C000849184611F09EFB099B18460BB05DF890
:1069AC0004FB00BF6C9A0300449A0300709C030024
:1069BC00949C0300B49C030076DF704700BF18461C
:1069CC007ADF704700BF18467CDF704700BF18465F
:1069DC008FDF704700BF1846ADDF704700BF184609
:1069EC0033DF704700BF184600B583B003460091F3
:1069FC00ADF80630BDF80630009A194603480BF086
:106A0C00DDFE00BF03B05DF804FB00BFEFBEADDEE2
:106A1C0010B58CB00390039B1B780E2B00F29A8060
:106A2C0001A252F823F000BF716A0200616B0200F0
:106A3C00616B0200896A0200616B0200BD6A020090
:106A4C00616B0200D36A0200496B0200616B0200A9
:106A5C00016B0200616B0200196B0200F96A020003
:106A6C00316B0200424A434BD31ADB081B0443F040
:106A7C0003034149184611F02DFB76E03C4A3D4B8F
:106A8C00D31ADB081B0443F00304039B5B881846F2
:106A9C0004F05CFA03461A46039B5B881946039B79
:106AAC001B7A00930B463549204611F046FB5CE0FF
:106ABC0000238DF81430039B5B8805AA11461846F9
:106ACC0008F0D2FA51E00EF0E1FD0790079B48F276
:106ADC000762934240D0079B0693069B002B3BD04A
:106AEC00274AD32106980BF069FE35E0002000F010
:106AFC00CBFD3AE0039B1B690993099B002B2DD01E
:106B0C001F4ADF2109980BF059FE27E0039B9B6875
:106B1C000A930A9B002B23D0194AE5210A980BF003
:106B2C004DFE1DE0039B9B680B930B9B002B19D018
:106B3C00134AEB210B980BF041FE13E0039B9B686F
:106B4C000893089B002B0FD00D4AF12108980BF0ED
:106B5C0035FE09E000BF08E000BF06E000BF04E01E
:106B6C0000BF02E000BF00E000BF00BF0CB010BDD2
:106B7C006C9A0300449A0300F09C03001C9D0300D4
:106B8C005C9D030000B58DB00390039B0A934C4BA6
:106B9C001B88ADF8183000238DF81A300323ADF89C
:106BAC0010300023ADF8123006AB05930A9BD88940
:106BBC000A9BDB8804AA1946FFF70EFF0990099B74
:106BCC000893089B002B05D03E4A4FF48A71089815
:106BDC000BF0F4FD3C4A3D4BD31ADB081B0443F08D
:106BEC000300BDF810301A46BDF812301946099B47
:106BFC0000930B46364911F0A0FA059B002B50D0A0
:106C0C0000238DF82F3036E02F4A304BD31ADB0897
:106C1C001B0443F003009DF82F209DF82F303033D8
:106C2C006B4413F8183C2B4911F073FA9DF82F3074
:106C3C0030336B4413F8182C9DF82F300132D2B23C
:106C4C0030336B4403F8182C1F4A204BD31ADB0843
:106C5C001B0443F003009DF82F209DF82F30303398
:106C6C006B4413F8183C1C4911F053FA9DF82F3063
:106C7C0001338DF82F309DF82F30022BC4D9059B92
:106C8C0019461648FFF716FE0990099B0793079BB8
:106C9C00002B11D00B4A40F21F1107980BF08EFD00
:106CAC000AE0094A094BD31ADB081B0443F003031F
:106CBC000B49184611F00EFA00BF0DB05DF804FB3D
:106CCC00489E03005C9D03006C9A0300449A0300E9
:106CDC00DC9D0300149E0300289E0300B8230020B3
:106CEC003C9E030000B585B00CF018F90390039B93
:106CFC000293029B002B05D00D4A40F22D110298F5
:106D0C000BF05CFD0B4A01210B480CF045F903908C
:106D1C00039B0193019B002B05D0054A40F23111D6
:106D2C0001980BF04BFD00BF05B05DF804FB00BFF4
:106D3C005C9D0300916B0200EC9C030000B587B0D6
:106D4C009DF80030012262F303038DF800309DF8AA
:106D5C000030012262F307138DF800306B460522D8
:106D6C001B491846FFF730FE0590059B0493049BC6
:106D7C00002B05D0174A40F2451104980BF01EFD6C
:106D8C0001AB08220021184612F0AEFD5023ADF8DD
:106D9C000430A023ADF806300023ADF808304FF4D2
:106DAC00C873ADF80A3001AB1846FFF709FE059021
:106DBC00059B0393039B002B05D0064A40F253110D
:106DCC0003980BF0FBFC00BF07B05DF804FB00BFA1
:106DDC004C9E03005C9D030000B583B00021094864
:106DEC0006F0A0F90190019B0093009B002B05D0AD
:106DFC00054A4FF4AE7100980BF0E0FC00BF03B0F5
:106E0C005DF804FB982300205C9D030000B583B063
:106E1C000190054A40F2691101980BF0CFFC00BFBC
:106E2C0003B05DF804FB00BF5C9D030000B587B0A8
:106E3C0001900091009B1B78032B30D801A252F8D3
:106E4C0023F000BF616E0200896E0200AB6E02007F
:106E5C00AB6E0200164B019A4FF4A03118460CF0A1
:106E6C00D5F80590059B0393039B002B19D0114A71
:106E7C004FF4CC7103980BF0A1FC12E00C4B1846AC
:106E8C000CF01CF90590059B0493049B002B0AD075
:106E9C00084A40F29D1104980BF090FC03E000BFEF
:106EAC0002E000BF00E000BF00BF07B05DF804FBCC
:106EBC00782200205C9D030000B587B0002302936C
:106ECC006B4600221A605A60294B029302AB19469A
:106EDC00284806F00BFA0590059B0493049B002BA5
:106EEC0005D0254A4FF4DC7104980BF067FC234B5A
:106EFC0000939DF80530012262F303038DF80530F1
:106F0C009DF80530012262F307138DF805309DF8CA
:106F1C000630012262F303038DF806309DF806302B
:106F2C00012262F307138DF806309DF80730012219
:106F3C0062F303038DF807309DF80730012262F3EA
:106F4C0007138DF807306B4619460D48FFF722FCE6
:106F5C000590059B0393039B002B05D0064A4FF429
:106F6C00E17103980BF02AFC00BF07B05DF804FB3D
:106F7C00196E0200AC2300205C9D0300396E0200E8
:106F8C00B823002000B585B00190019B1B78002B25
:106F9C0011D10B4B1B883B211846FFF70DFD0390BD
:106FAC00039B0293029B002B05D0064A4FF4F7710A
:106FBC0002980BF003FC00BF05B05DF804FB00BFAA
:106FCC00982200205C9D030000B583B00190054A17
:106FDC0040F2F91101980BF0F1FB00BF03B05DF822
:106FEC0004FB00BF5C9D030000B58BB001AB1C2201
:106FFC000021184612F078FC002301934FF4A033C3
:10700C0002934FF4F023039303238DF810300023E5
:10701C00ADF8123000238DF814300C4B06930C4B4A
:10702C00079301AB184603F04DFC0990099B08939C
:10703C00089B002B05D0074A4FF4047108980BF0FD
:10704C00BDFB00BF0BB05DF804FB00BF916F0200ED
:10705C00D56F02005C9D030000BF704700B585B082
:10706C00002001F0CBF90390039B0293029B002BB1
:10707C0005D0134A40F2292102980BF09FFB01F036
:10708C0046FB0390039B0193019B002B05D00C4AFC
:10709C0040F22D2101980BF091FBFFF7A1FC03901E
:1070AC00039B0093009B002B05D0054A40F2312135
:1070BC0000980BF083FB00BF05B05DF804FB00BF2C
:1070CC005C9D030000B585B003468DF807309DF834
:1070DC000730002B1CD0032B1DD1124A124BD31A94
:1070EC00DB081B0443F003031049184610F0F2FFB1
:1070FC00022001F083F90390039B0293029B002B67
:10710C000BD00B4A4FF4117102980BF057FB04E0B3
:10711C00FFF7A4FF02E000BF00E000BF00BF05B016
:10712C005DF804FB6C9A0300449A0300549E030020
:10713C005C9D030000B58BB0019000910023099376
:10714C00019B1B88562B00F08580562B00F39580F5
:10715C003B2B6CD03B2B00F39080212B4DD0212B63
:10716C0000F38B80102B11D0112B40F08680494AF4
:10717C00494BD31ADB081B0443F003034749184659
:10718C0010F0A8FF012000F071FC7FE0414A424B57
:10719C00D31ADB081B0443F003034149184610F0D3
:1071AC0099FF012000F048FC002000F05FFC072054
:1071BC0001F024F90990099B0593059B002B05D040
:1071CC00384A40F2672105980BF0F8FA019B9A882F
:1071DC00354B1A80344B1B881946344806F0A8F8F6
:1071EC000990099B0493049B002B48D02D4A40F234
:1071FC006A2104980BF0E2FA41E000238DF80C3080
:10720C0000238DF80D30019B9B8803AA114618466C
:10721C00FFF7DEFB0990099B0693069B002B30D0F1
:10722C00204A40F2762106980BF0C8FA29E0019B1F
:10723C009B8813211846FFF7BFFB0990099B089305
:10724C00089B002B1FD0174A40F27E2108980BF0A8
:10725C00B5FA18E0019B9B8813211846FFF7ACFB8D
:10726C000990099B0793079B002B0ED00D4A40F207
:10727C00862107980BF0A2FA07E000BF06E000BFDA
:10728C0004E000BF02E000BF00E000BF00BF0BB095
:10729C005DF804FB6C9A0300449A0300689E03009B
:1072AC00789E03005C9D030098220020AC230020F4
:1072BC0000B587B011F0A2FE0590059B0493049BCA
:1072CC00002B05D0164A40F2992104980BF076FA5F
:1072DC000023019301AB1946012011F0A5FF059085
:1072EC00059B0393039B002B05D00D4A40F29F2175
:1072FC0003980BF063FA01AB184612F089F805906D
:10730C00059B0293029B002B05D0054A40F2A3215A
:10731C0002980BF053FA00BF07B05DF804FB00BFF6
:10732C005C9D030000B587B007F09CFD0590059BA4
:10733C000493049B002B05D0384A40F2B2210498E8
:10734C000BF03CFA6B4605220021184612F0CCFAE1
:10735C009DF8003043F001038DF800309DF80030AB
:10736C006FF341038DF800309DF800306FF382030A
:10737C008DF800309DF800306FF3C3038DF80030AA
:10738C009DF80030032262F306138DF800309DF84F
:10739C0000306FF3C7138DF8003007238DF80130E0
:1073AC0010238DF802309DF8033043F001038DF863
:1073BC0003309DF8033043F002038DF803309DF841
:1073CC00043043F001038DF804309DF8043043F091
:1073DC0002038DF804306B46184607F02DFE05901D
:1073EC00059B0393039B002B05D00C4A40F2C5214F
:1073FC0003980BF0E3F90A4807F0F6FD0590059B9E
:10740C000293029B002B05D0044A4FF43271029870
:10741C000BF0D4F900BF07B05DF804FB5C9D0300D2
:10742C001D6A020000B583B00E4A0F4BD31ADB085D
:10743C001B0443F003030D49184610F04BFE07F0F4
:10744C0041FE0190019B0093009B002B05D0084A44
:10745C0040F2D52100980BF0B1F900BF03B05DF8F4
:10746C0004FB00BF6C9A0300449A0300849E030043
:10747C005C9D030000B587B003468DF807309DF87E
:10748C0007300A2B06D00A2B36DC042B05D0072B31
:10749C0019D031E0FFF7E2FD33E01C4B1B881321C0
:1074AC001846FFF789FA0590059B082B26D0059BFB
:1074BC000393039B002B21D0154A4FF43B71039887
:1074CC000BF07CF91AE0114B1B884FF6FF729342BC
:1074DC0016D1104803F077F80590059B082B0FD0B8
:1074EC00059B0493049B002B0AD0094A40F2F62119
:1074FC0004980BF063F903E000BF02E000BF00E06A
:10750C0000BF00BF07B05DF804FB00BF982200204D
:10751C005C9D0300CC23002000B5AFB001ABAC22C6
:10752C000021184612F0E0F902238DF804300123F3
:10753C008DF8063006238DF807300123ADF8143092
:10754C00124B069301238DF880304FF496732393DE
:10755C0044F2506324930E4B2A9301AB19460D4809
:10756C0002F016FE2D902D9B2C932C9B002B05D0FE
:10757C00094A40F217312C980BF020F901210548EB
:10758C0002F0F9FD00BF2FB05DF804FB9C22002037
:10759C00D1700200CC2300205C9D030000B587B0A5
:1075AC0001901749032000F043FF0590059B0493BD
:1075BC00049B002B05D0134A40F2273104980BF0A2
:1075CC00FDF80DF10B031946002001F003F90590AD
:1075DC00059B0393039B002B05D00A4A40F22A31EA
:1075EC0003980BF0EBF89DF80B30022B0CBF01232A
:1075FC000023DAB2019B1A7000BF07B05DF804FBE0
:10760C00817402005C9D030000B583B04FF480418F
:10761C00002010F089FA0190019B0093009B002B35
:10762C0005D0064A40F2353100980BF0C7F810F03F
:10763C0011FA00BF03B05DF804FB00BF5C9D0300B2
:10764C0000B583B00FF038FF0190019B0093009BB5
:10765C00002B05D0044A40F2413100980BF0AEF8F3
:10766C0000BF03B05DF804FB5C9D030008B510F08F
:10767C00A3FD034683F00103DBB2002B01D00FF016
:10768C0031FF00BF08BD000000B585B003468DF882
:10769C0007309DF80730002B05D0022000F0CCF904
:1076AC00FFF7C0FE12E003210A4802F049FE0390E6
:1076BC00002000F0C1F9039B0293029B002B05D024
:1076CC00054A40F2613102980BF078F800BF05B022
:1076DC005DF804FBCC2300205C9D030000B583B057
:1076EC00FFF792FFFFF7FEFA0DF107031846FFF7BD
:1076FC0055FF032000F0A0F9174A184BD31ADB08EA
:10770C001B0443F003031649184610F0E3FCFFF783
:10771C0097FFFFF7CDFDFFF711FBFFF75DFBFFF7C1
:10772C00CBFBFFF7F9FEFFF75FFCFFF7FBFD0A4A07
:10773C000A4BD31ADB081B0443F003030949184610
:10774C0010F0C8FCFFF788FC9DF807301846FFF7CF
:10775C009BFFFFF78BFFFCE76C9A0300449A030036
:10776C00949E03009C9E030000B583B00190019B86
:10777C001B68184600F011F90346002B04D105498B
:10778C004FF4F670FFF730F94FF0A043184603B0F2
:10779C005DF804FBBC9E030000B585B00190084663
:1077AC0011461A4603468DF803300B468DF802300D
:1077BC0013468DF8013001AB1846FFF7D5FF039047
:1077CC009DF803209DF802305B001A439DF80130B0
:1077DC009B001A439DF818301B0242EA03019DF8E6
:1077EC001C301B04019A1943039B02F5E07243F809
:1077FC00221000BF05B05DF804FB00B585B0039006
:10780C0000230193002300930023012201210398FC
:10781C00FFF7C2FF00BF05B05DF804FB00B585B0F3
:10782C0003900B468DF80B309DF80B300022019223
:10783C0000220092002200210398FFF7ADFF00BF49
:10784C0005B05DF804FB00B585B0019001AB18469E
:10785C00FFF78AFF0390019B012202FA03F31946FA
:10786C00039800F086F800BF05B05DF804FB00B586
:10787C0085B0019001AB1846FFF776FF0390019B92
:10788C00012202FA03F31946039800F07CF800BFBA
:10789C0005B05DF804FB00B585B0019001AB18464E
:1078AC00FFF762FF0390039BD3F804350293029B0E
:1078BC00DA43019B012101FA03F31A40039BC3F83D
:1078CC000825019B01229A40029B1A40039BC3F896
:1078DC000C2500BF05B05DF804FB00B583B001902A
:1078EC000091009B002B03D10198FFF7C0FF02E031
:1078FC000198FFF7A8FF00BF03B05DF804FB00B5CB
:10790C0085B0019001AB1846FFF72EFF039003984A
:10791C0000F01FF80246019B22FA03F303F0010367
:10792C00184605B05DF804FB00B585B0019001ABBD
:10793C001846FFF719FF0390039800F012F802465F
:10794C00019B22FA03F303F00103184605B05DF81E
:10795C0004FB82B00190019BD3F81035184602B09D
:10796C00704782B00190019BD3F80435184602B0E1
:10797C00704782B001900091019B009AC3F80825D2
:10798C0000BF02B0704782B001900091019B009A39
:10799C00C3F80C2500BF02B0704784B00190019B66
:1079AC005B09029300230393029B002B03D14FF03E
:1079BC00FF33039300BF019B03F01F030193039A52
:1079CC00019B22FA03F303F00103002B14BF0123E4
:1079DC000023DBB2184604B07047000000B585B038
:1079EC000190019B032B03D911493A20FEF7FCFFB0
:1079FC00104A019B13441B781846FFF795FF03466A
:107A0C00002B14BF012300238DF80F309DF80F308D
:107A1C00002B14BF01230023DBB283F00103DBB284
:107A2C0003F00103DBB2184605B05DF804FB00BFA0
:107A3C00EC9E0300589F030000B583B00190019B9E
:107A4C00032B03D907494120FEF7CEFF064A019BC1
:107A5C0013441B7800211846FFF73FFF00BF03B00B
:107A6C005DF804FBEC9E0300589F030000B583B047
:107A7C000190019B032B03D907494720FEF7B4FF64
:107A8C00064A019B13441B7801211846FFF725FF7A
:107A9C0000BF03B05DF804FBEC9E0300589F03008D
:107AAC0000B583B00023019305E00198FFF7DEFFDA
:107ABC00019B01330193019B032BF6D900BF00BF3F
:107ACC0003B05DF804FB00B583B00023019305E01F
:107ADC000198FFF7B1FF019B01330193019B032B2D
:107AEC00F6D900BF00BF03B05DF804FB00B583B04E
:107AFC000190019B032B03D907495F20FEF774FF0C
:107B0C00064A019B13441B781846FFF7C4FE00BFBE
:107B1C0003B05DF804FB00BFEC9E0300589F03000C
:107B2C0000B583B00023019309E0094A019B13447B
:107B3C001B781846FFF761FE019B01330193019BF3
:107B4C00032BF2D9FFF7ACFF00BF03B05DF804FBC9
:107B5C00589F030000B585B00190019B032B03D9FE
:107B6C001149AC20FEF740FF104A019B13441B78CF
:107B7C001846FFF7C4FE0346002B14BF0123002355
:107B8C008DF80F309DF80F30002B14BF012300230C
:107B9C00DBB283F00103DBB203F00103DBB2184666
:107BAC0005B05DF804FB00BFEC9E03005C9F030076
:107BBC0000B583B0002301930AE0094A019B1344EA
:107BCC001B7803211846FFF729FE019B0133019313
:107BDC00019B032BF1D900BF00BF03B05DF804FB80
:107BEC005C9F030084B001904FF0FF33029300239D
:107BFC0003930DE00A4A039B13441B781A46019B1E
:107C0C00934202D1039B029305E0039B0133039340
:107C1C00039B032BEED9029B184604B0704700BFA0
:107C2C005C9F030000B583B00190019B032B03D92B
:107C3C000549CB20FEF7D8FE044A019B13441B7860
:107C4C00184603B05DF804FBEC9E03005C9F030038
:107C5C0000B583B00190019B03F00103002B01D010
:107C6C00FFF75EFF019B03F00203002B01D0FFF72F
:107C7C009FFF00BF03B05DF804FB000000B583B0AC
:107C8C000190019B1B68184600F03EF80346002B40
:107C9C0004D105494FF4F670FEF7A6FE4FF0A04351
:107CAC00184603B05DF804FB609F030000B585B077
:107CBC0001900B468DF8033001AB1846FFF7DEFF41
:107CCC000390019A039B02F5E07253F82230019A5B
:107CDC0023F44031039B02F5E07243F82210019A21
:107CEC00039B02F5E07253F822309DF80320120436
:107CFC001146019A1943039B02F5E07243F82210D6
:107D0C0000BF05B05DF804FB84B00190019B5B09DA
:107D1C00029300230393029B002B03D14FF0FF33FC
:107D2C00039300BF019B03F01F030193039A019B74
:107D3C0022FA03F303F00103002B14BF01230023E9
:107D4C00DBB2184604B0704700B583B00190019BBC
:107D5C00032B04D80198FFF7FDFE034600E0002337
:107D6C00184603B05DF804FB00B587B003460A461D
:107D7C008DF8073013468DF8063000238DF8173038
:107D8C00002304939DF807301846FFF72BFF04904F
:107D9C00049B032B62D89DF80630022B52D0022B89
:107DAC005CDC002B31D0012B58D13549049A134699
:107DBC005B0013440B441B788DF817303049049A40
:107DCC0013465B0013440B4401331B78002B0ED07D
:107DDC002C4B2D4A4FF4804118460BF017F90390A9
:107DEC00039B002B03D1284A9DF8073013702449BC
:107DFC00049A13465B0013440B4402331978234A4C
:107E0C00049B13440A461A7028E01E4B18460BF0CC
:107E1C0055F91E4A049B134419781948049A1346C1
:107E2C005B001344034402331B78994215D1144967
:107E3C00049A13465B0013440B4402331B788DF8F1
:107E4C0017300AE00E49049A13465B0013440B44A6
:107E5C0001331B788DF8173000E000BF9DF8173008
:107E6C00002B09D00A4B1B68002B05D0084B1B6854
:107E7C009DF817201046984700BF07B05DF804FB2B
:107E8C0010280020E02200201C28002020280020A0
:107E9C000C28002000B583B00190019B1B780221B7
:107EAC001846FFF761FF00BF03B05DF804FB00004C
:107EBC0000B583B00C4B1B78002B0FD00023019323
:107ECC0008E0019B022B02D00198FFF7CFFD019B2C
:107EDC0001330193019B032BF3D901E0FFF7E0FD84
:107EEC0000BF03B05DF804FB082800202DE9D04F3B
:107EFC0092B003468DF83F3000231193002310936A
:107F0C00CC4B1B78002B04D0CA4A00231370FFF70C
:107F1C00CFFF9DF83F30172B00F23F8201A252F8A1
:107F2C0023F000BF917F0200A97F0200A97F02000D
:107F3C0045800200E18002005D810200F1810200B7
:107F4C0011820200218202004D8202006B8202002B
:107F5C0089820200A7820200B5820200B58202006B
:107F6C00B5820200B5820200B5820200498302008C
:107F7C00578302006B8302007F8302009983020007
:107F8C0099830200FFF794FFAB4B18460BF096F861
:107F9C001190AA4A9DF83F301370FFE10020FFF7C3
:107FAC001DFD0346002B0DD00020FFF75FFD9DF853
:107FBC003F30022B02D14FF4E16301E04FF47A63BE
:107FCC0010930BE00020FFF737FD9DF83F30022B9C
:107FDC0001D1C82301E04FF4C8731093974A9DF860
:107FEC003F301370944C109B0022009301924FF081
:107FFC0000024FF00003DDE900673946CB03314640
:10800C0043EA51433146CA0312F57A71029143F1A6
:10801C00000303934FF4FA624FF00003DDE9020111
:10802C0011F0FAFA02460B46134600221946204676
:10803C000AF0ECFF1190B1E10020FFF7CFFC0346F2
:10804C00002B0DD00020FFF711FD9DF83F30032BC6
:10805C0002D14FF4487301E04FF47A6310930BE0B4
:10806C000020FFF7E9FC9DF83F30032B01D1C8231A
:10807C0001E04FF4C8731093704A9DF83F301370B1
:10808C006D4C109B0022049305924FF000024FF0B0
:10809C000003DDE904673946CB03314643EA51431B
:1080AC003146CA0312F57A71069143F10003079326
:1080BC004FF4FA624FF00003DDE9060111F0ACFA5F
:1080CC0002460B4613460022194620460AF09EFF34
:1080DC00119063E10020FFF781FC0346002B06D0D2
:1080EC000020FFF7C3FC4FF47A63109305E00020E7
:1080FC00FFF7A2FC4FF4C8731093504A9DF83F3021
:10810C0013704D4C109B00229A4693464FF0000280
:10811C004FF000034FEACB3343EA5A434FEACA32DB
:10812C0012F57A71089143F1000309934FF4FA6246
:10813C004FF00003DDE9080111F06EFA02460B4620
:10814C0013460022194620460AF060FF119025E1E3
:10815C000020FFF743FC0346002B0CD00020FFF758
:10816C0085FC9DF83F30052B01D1C82301E04FF46D
:10817C007A6310930BE00020FFF75EFC9DF83F3014
:10818C00052B01D1C82301E04FF4C87310932B4A7F
:10819C009DF83F301370284C109B00229846914656
:1081AC004FF000024FF000034FEAC93343EA584343
:1081BC004FEAC83212F57A710A9143F100030B931E
:1081CC004FF4FA624FF00003DDE90A0111F024FAD2
:1081DC0002460B4613460022194620460AF016FFAB
:1081EC001190DBE00020FFF781FC144A9DF83F3032
:1081FC001370114B002240F2666118460AF006FF1C
:10820C001190CBE00020FFF717FC0C4A9DF83F3093
:10821C001370C3E0074B01221A700120FFF766FCB4
:10822C00054B002240F2666118460AF0EFFE1190F1
:10823C00B4E000BF01280020A0220020002800206C
:10824C00594B01221A700120FFF750FC574B0022AA
:10825C004FF4005118460AF0D9FE11909EE0524B93
:10826C0001221A700120FFF741FC504B002240F212
:10827C00666118460AF0CAFE11908FE04A4B012243
:10828C001A700120FFF732FC484B00224FF40051CA
:10829C0018460AF0BBFE119080E0FFF714FC444A2C
:1082AC009DF83F30137079E0424B18460AF006FFF8
:1082BC0011909DF83F30C3F111031093109B002BCC
:1082CC0035D0119B002B32D1109B012B28D9394C66
:1082DC00109B9BB21A46C82302FB03F3DA171E4607
:1082EC0017464FF000024FF00003FB0343EA5643DE
:1082FC00F20312F57A710C9143F100030D934FF4D4
:10830C00FA624FF00003DDE90C0111F085F9024629
:10831C000B4613460022194620460AF077FE1190B0
:10832C000220FFF789FB244B01221A7036E0022051
:10833C00FFF79CFB204B00221A702FE0FFF7B8FDD3
:10834C001B4A9DF83F30137028E0FFF7B1FD002069
:10835C00FFF772FB164A9DF83F3013701EE0FFF7D3
:10836C00A7FD0120FFF768FB114A9DF83F30137001
:10837C0014E0FFF79DFD0020FFF75EFB0120FFF7E7
:10838C005BFB0B4A9DF83F30137007E0FFF79BFB3C
:10839C00074A9DF83F30137000E000BF119B184650
:1083AC0012B0BDE8D08F00BF01280020A022002011
:1083BC0000280020C02200200828002000B583B02F
:1083CC000190074B1B6803F00103002B04D0054BF5
:1083DC001B781846FFF78AFD00BF03B05DF804FB5D
:1083EC00042800200028002000B583B00190022052
:1083FC00FFF77CFB00BF03B05DF804FB00B585B054
:10840C0003468DF8073000230393084B1B6803F0D9
:10841C000103002B05D09DF807301846FFF766FDC9
:10842C000390039B184605B05DF804FB042800205C
:10843C0000B585B001900091002303932A4A019B5B
:10844C0013602A4A009B1360019B03F00203002B6C
:10845C002AD00023029308E001220121029800F0A7
:10846C0055F80390029B01330293029B032B02D815
:10847C00039B002BF0D0039B002B06D140F2333230
:10848C0004211B480AF09AF80390039B002B02D19D
:10849C000AF01CF90390039B002B05D1154A00210F
:1084AC0015480AF079FD0390019B03F00103002BA2
:1084BC0014D00120FFF7CCFB039B002B05D10F4AF6
:1084CC0000210F480AF068FD0390039B002B05D197
:1084DC000C4A01210C480AF05FFD0390039B1846DF
:1084EC0005B05DF804FB00BF042800200C28002018
:1084FC009C9F0300A17E0200989F0300C983020089
:10850C00909F0300F5830200949F030084B00190B8
:10851C000B468DF8033013468DF80230002303937D
:10852C00019B032B3CD89DF80230012B0BD19DF8FD
:10853C000330012B04D1019BDBB20E33DBB200E024
:10854C0000238DF802309DF80330022B0FD0022B44
:10855C0023DC002B16D0012B1FD11449019A134692
:10856C005B0013440B449DF802201A701AE00F496B
:10857C00019A13465B0013440B4401339DF802200F
:10858C001A700FE00949019A13465B0013440B441F
:10859C0002339DF802201A7004E00723039301E0D4
:1085AC0007230393039B184604B070471028002040
:1085BC0000B585B001900B468DF80330019B032B61
:1085CC0014D89DF80330002B01D0032300E00023C6
:1085DC008DF80F300198FFF725FB02469DF80F3000
:1085EC0019461046FFF762FB002300E006231846ED
:1085FC0005B05DF804FB00B583B001900121019832
:10860C00FFF7D6FF0346184603B05DF804FB00B530
:10861C0083B0012200210020FFF778FF0190019B1D
:10862C00002B04D0019B072B01D0019B1CE00722DF
:10863C0002210120FFF76AFF0190019B002B04D05F
:10864C00019B072B01D0019B0EE00422022100208C
:10865C00FFF75CFF0190019B002B04D0019B072BC3
:10866C0001D0019B00E00023184603B05DF804FB29
:10867C0000B583B0012202210020FFF747FF0190D3
:10868C00019B002B04D0019B072B01D0019B1CE00C
:10869C00072202210120FFF739FF0190019B002BDB
:1086AC0004D0019B072B01D0019B0EE00A22002174
:1086BC000020FFF72BFF0190019B002B04D0019BA6
:1086CC00072B01D0019B00E00023184603B05DF896
:1086DC0004FB00B583B001900120FFF735FB034686
:1086EC00002B03D0019B02221A700CE00020FFF734
:1086FC002BFB0346002B03D0019B0B221A7002E0CC
:10870C00019B00221A7000BF03B05DF804FB00B59A
:10871C0083B00020FFF76FFF0190019B002B04D06A
:10872C00019B062B01D0019B0CE00120FFF763FF9E
:10873C000190019B002B04D0019B062B01D0019BC7
:10874C0000E00023184603B05DF804FB00B585B0CB
:10875C0001900091019B1B88102B02D0112B18D07B
:10876C002FE01A4B1B68002B0DD1FFF750FF039025
:10877C00039B002B07D0164B1B68002B03D0144B0C
:10878C001B6803989847114B1B6801330F4A136001
:10879C0017E00E4B1B68013B0C4A13600B4B1B681C
:1087AC00002B0DD1FFF764FF0390039B002B07D028
:1087BC00074B1B68002B03D0054B1B68039898478D
:1087CC0000BF00BF05B05DF804FB00BF28280020E7
:1087DC002428002000B585B001900091002303935C
:1087EC000A4A019B1360009B002B02D00098FFF7F4
:1087FC0070FF074B1B68002B02D1FFF739FF03906A
:10880C00039B184605B05DF804FB00BF242800202C
:10881C0028280020BFF34F8F00BF064BDB6803F402
:10882C00E0620449044B1343CB60BFF34F8F00BF8E
:10883C0000BFFDE700ED00E00400FA0582B01D4B1F
:10884C001B68B3F1FF3F0AD11B4B1B68DBB20193D2
:10885C001A4B1B681B0903F00F03009305E0154B23
:10886C001B680193164B1B680093019B062B1DD1B3
:10887C00009B033B042B17D801A252F823F000BF36
:10888C00A1880200A5880200A9880200AD88020018
:10889C00B188020001230AE0012308E0012306E06D
:1088AC00012304E0012302E0012300E00023184629
:1088BC0002B0704730010010E00F00F0E80F00F03C
:1088CC003401001082B0174B1B68DBB20193164BBE
:1088DC001B681B0903F00F030093019B062B1DD192
:1088EC00009B033B042B17D801A252F823F000BFC6
:1088FC001189020015890200198902001D890200E4
:10890C002189020001230AE0002308E0002306E08D
:10891C00002304E0002302E0002300E000231846BB
:10892C0002B07047E00F00F0E80F00F082B01D4B72
:10893C001B68B3F1FF3F0AD11B4B1B68DBB20193E1
:10894C001A4B1B681B0903F00F03009305E0154B32
:10895C001B680193164B1B680093019B062B1DD1C2
:10896C00009B033B042B17D801A252F823F000BF45
:10897C009189020095890200998902009D89020063
:10898C00A189020001230AE0012308E0012306E08B
:10899C00012304E0012302E0012300E00023184638
:1089AC0002B0704730010010E00F00F0E80F00F04B
:1089BC003401001082B0174B1B68DBB20193164BCD
:1089CC001B681B0903F00F030093019B062B1DD1A1
:1089DC00009B033B042B17D801A252F823F000BFD5
:1089EC00018A0200058A0200098A02000D8A02002F
:1089FC00118A020001230AE0002308E0002306E0AC
:108A0C00002304E0002302E0002300E000231846CA
:108A1C0002B07047E00F00F0E80F00F082B01D4B81
:108A2C001B68B3F1FF3F0AD11B4B1B68DBB20193F0
:108A3C001A4B1B681B0903F00F03009305E0154B41
:108A4C001B680193164B1B680093019B062B1DD1D1
:108A5C00009B033B042B17D801A252F823F000BF54
:108A6C00818A0200858A0200898A02008D8A0200AE
:108A7C00918A020001230AE0012308E0012306E0A9
:108A8C00012304E0012302E0012300E00023184647
:108A9C0002B0704730010010E00F00F0E80F00F05A
:108AAC003401001082B0174B1B68DBB20193164BDC
:108ABC001B681B0903F00F030093019B062B1DD1B0
:108ACC00009B033B042B17D801A252F823F000BFE4
:108ADC00F18A0200F58A0200F98A0200FD8A02007E
:108AEC00018B020001230AE0002308E0002306E0CA
:108AFC00002304E0002302E0002300E000231846DA
:108B0C0002B07047E00F00F0E80F00F082B0174B96
:108B1C001B68DBB20193164B1B681B0903F00F0398
:108B2C000093019B062B1DD1009B033B042B17D8F4
:108B3C0001A252F823F000BF598B02005D8B02009A
:108B4C00618B0200658B0200698B020001230AE035
:108B5C00002308E0002306E0002304E0002302E0E9
:108B6C00002300E00023184602B07047E00F00F02D
:108B7C00E80F00F082B01D4B1B68B3F1FF3F0AD128
:108B8C001B4B1B68DBB201931A4B1B681B0903F0D0
:108B9C000F03009305E0154B1B680193164B1B68E4
:108BAC000093019B062B1DD1009B033B042B17D874
:108BBC0001A252F823F000BFD98B0200DD8B02001A
:108BCC00E18B0200E58B0200E98B020000230AE036
:108BDC00002308E0012306E0012304E0012302E066
:108BEC00012300E00023184602B07047300100104A
:108BFC00E00F00F0E80F00F03401001082B01D4BC4
:108C0C001B68B3F1FF3F0AD11B4B1B68DBB201930E
:108C1C001A4B1B681B0903F00F03009305E0154B5F
:108C2C001B680193164B1B680093019B062B1DD1EF
:108C3C00009B033B042B17D801A252F823F000BF72
:108C4C00618C0200658C0200698C02006D8C020044
:108C5C00718C020001230AE0012308E0012306E0E5
:108C6C00012304E0012302E0012300E00023184665
:108C7C0002B0704730010010E00F00F0E80F00F078
:108C8C003401001082B01D4B1B68B3F1FF3F0AD1B9
:108C9C001B4B1B68DBB201931A4B1B681B0903F0BF
:108CAC000F03009305E0154B1B680193164B1B68D3
:108CBC000093019B062B1DD1009B033B042B17D863
:108CCC0001A252F823F000BFE98C0200ED8C0200E7
:108CDC00F18C0200F58C0200F98C020001230AE0F1
:108CEC00012308E0012306E0012304E0012302E054
:108CFC00012300E00023184602B070473001001039
:108D0C00E00F00F0E80F00F03401001082B0154BBA
:108D1C001B680193144B1B680093019B062B1DD100
:108D2C00009B033B042B17D801A252F823F000BF81
:108D3C00518D0200558D0200598D02005D8D02008F
:108D4C00618D020000230AE0002308E0002306E006
:108D5C00012304E0012302E0012300E00023184674
:108D6C0002B07047300100103401001082B0154B76
:108D7C001B680193144B1B680093019B062B1DD1A0
:108D8C00009B033B042B17D801A252F823F000BF21
:108D9C00B18D0200B58D0200B98D0200BD8D0200AF
:108DAC00C18D020000230AE0002308E0002306E046
:108DBC00002304E0012302E0012300E00023184615
:108DCC0002B07047300100103401001008B5FFF7F5
:108DDC00CDFF0346002B07D04FF010234FF08042FD
:108DEC00D3F80832C2F8583500BF08BD00BF044B99
:108DFC00D3F80034002BFAD000BF00BF704700BF7F
:108E0C0000E0014000B583B00190054A019BC2F817
:108E1C000435FFF7EBFF00BF03B05DF804FB00BFA8
:108E2C0000E00140024B034A1A6000BF704700BFCC
:108E3C00002300200090D00308B5FFF7FFFC034689
:108E4C00002B06D0964B1B681B0A964A03F01F0397
:108E5C001360FFF737FD0346002B02D0924B934A69
:108E6C001A60FFF763FD0346002B06D0904B1B687E
:108E7C005B0B904A03F007031360FFF79BFD03465F
:108E8C00002B05D08C4BDB688B4A23F08073D360AE
:108E9C00FFF7C4FD0346002B0ED04FF08043002299
:108EAC00C3F80C214FF080430022C3F810214FF07F
:108EBC0080430022C3F83825FFF7F4FD0346002B4E
:108ECC0002D07E4B03221A60FFF720FE0346002BD4
:108EDC000BD07B4B05221A607A4B01221A607A4B1D
:108EEC0000221A60794B3F221A60FFF743FE0346BB
:108EFC00002B76D04FF08053754AD3F80434C2F867
:108F0C0020354FF08053724AD3F80834C2F8243518
:108F1C004FF080536E4AD3F80C34C2F828354FF01A
:108F2C0080536B4AD3F81034C2F82C354FF0805371
:108F3C00674AD3F81434C2F830354FF08053644A82
:108F4C00D3F81834C2F834354FF08053604AD3F854
:108F5C001C34C2F840354FF080535D4AD3F82034AE
:108F6C00C2F844354FF08053594AD3F82434C2F830
:108F7C0048354FF08053564AD3F82834C2F84C3554
:108F8C004FF08053524AD3F82C34C2F850354FF07E
:108F9C0080534F4AD3F83034C2F854354FF08053D5
:108FAC004B4AD3F83434C2F860354FF08053484AFA
:108FBC00D3F83834C2F864354FF08053444AD3F8B0
:108FCC003C34C2F868354FF08053414AD3F84034F2
:108FDC00C2F86C354FF080533D4AD3F84434C2F894
:108FEC007035FFF70BFE0346002B05D0394B1B6881
:108FFC00394A03F04F031360FFF744FE0346002B7E
:10900C000DD04FF08043D3F8003403F00103002B54
:10901C0005D04FF080436FF00102C3F80024FFF736
:10902C0075FE0346002B05D02C4B1B682B4A43F4D2
:10903C00806313602A4BD3F88830294A43F47003B9
:10904C00C2F88830BFF34F8F00BFBFF36F8F00BFE4
:10905C00FFF7BCFE4FF01023D3F80032002B05DBDA
:10906C004FF01023D3F80432002B15DA0120FFF750
:10907C00C9FE4FF010231522C3F80022FFF7B6FEED
:10908C004FF010231522C3F80422FFF7AFFE002087
:10909C00FFF7B8FEFFF7BEFBFFF7C4FE00BF08BD2D
:1090AC00240300104035014074C007400DF0ADBAE8
:1090BC00440200103C050040F0ED00E0A00500402B
:1090CC001056004088560040185600401456004078
:1090DC0000C0004058020010E40E00403C17004055
:1090EC0000ED00E06DDF704700BF184679DF704778
:1090FC0000BF18467DDF704700BF184664DF70471D
:10910C0000BF184682B003460091ADF80630BDF89A
:10911C000630DAB2009B1A70BDF806301B0A9AB200
:10912C00009B0133D2B21A700223184602B070476A
:10913C0000B589B0039002911346ADF80630029B3E
:10914C001B8803F10902BDF806309A4201D90C23A1
:10915C0053E004AB1846FFF7C5FF0790079B069337
:10916C00069B002B01D0069B47E0029B1B881A46EE
:10917C00039B134408221A70029B1B8801339AB27A
:10918C00029B1A80029B1B881A46039B13441B22CA
:10919C001A70029B1B8801339AB2029B1A80029BA5
:1091AC001B881A46039B981804AB013306221946F8
:1091BC0010F064FB029B1B8806339AB2029B1A8048
:1091CC009DF8103023F00103DBB2002B07D1029B7A
:1091DC001B881A46039B134400221A7006E0029B5C
:1091EC001B881A46039B134401221A70029B1B888E
:1091FC0001339AB2029B1A800023184609B05DF81D
:10920C0004FB00B589B0039002910192ADF80230D5
:10921C00039B1B78012B05D1039B5B78002B01D1A1
:10922C00072392E0019B1B889A1CBDF802309A42DE
:10923C000ED8039B1B78012B0CD1019B1B881A4663
:10924C00039B5B7813449A1CBDF802309A4201D9F7
:10925C000C237AE0019B1B88BDF80220D31A9BB229
:10926C00023BADF81C30BDF81C30ADF81230019B40
:10927C001B880233029A13440DF112021146184650
:10928C00FFF738FF0690069B0593059B002B01D03A
:10929C00059B5AE0039B1B78022B06D0039B5B7843
:1092AC009AB2BDF812309A4209D3BDF81230BDF80B
:1092BC001C209A4203D309238DF81F3017E0082392
:1092CC008DF81F30039B1B78012B0CD1039B5B7813
:1092DC009BB2BDF81C209A4205D3039B5B789BB2D2
:1092EC00ADF8123003E0BDF81C30ADF81230BDF80B
:1092FC001230FE2B01D90C2327E0BDF81230DAB264
:10930C00019B1B881946029B0B440132D2B21A7086
:10931C00019B1B8801339AB2019B1A80019B1B880D
:10932C001A46029B13449DF81F201A70019B1B8840
:10933C0001339AB2019B1A80019B1A88BDF8123036
:10934C0013449AB2019B1A800023184609B05DF8A9
:10935C0004FB00B589B0039002911346ADF80630BA
:10936C00029B1B881A1DBDF806309A4201D90C23AA
:10937C003BE00DF116031846FFF7B8FE0790079B6C
:10938C000693069B002B01D0069B2EE0029B1B88AC
:10939C001A46039B134403221A70029B1B88013349
:1093AC009AB2029B1A80029B1B881A46039B134499
:1093BC0019221A70029B1B8801339AB2029B1A80E5
:1093CC00BDF81620029B1B881946039B0B441946BB
:1093DC001046FFF797FE03461946029B1A888BB27C
:1093EC0013449AB2029B1A800023184609B05DF808
:1093FC0004FB84B0029101921A4603468DF80F309B
:10940C001346ADF80C30019B1B88DA1CBDF80C30F0
:10941C009A4201D90C2328E0019B1B881A46029B17
:10942C00134402221A70019B1B8801339AB2019BD0
:10943C001A80019B1B881A46029B134401221A7046
:10944C00019B1B8801339AB2019B1A80019B1B88DC
:10945C001A46029B13449DF80F201A70019B1B881F
:10946C0001339AB2019B1A800023184604B070474E
:10947C0084B0029101921A4603468DF80F301346C0
:10948C00ADF80C30019B1B88DA1CBDF80C309A42ED
:10949C0001D90C2328E0019B1B881A46029B13441C
:1094AC0002221A70019B1B8801339AB2019B1A800D
:1094BC00019B1B881A46029B13440A221A70019BBB
:1094CC001B8801339AB2019B1A80019B1B881A4698
:1094DC00029B13449DF80F201A70019B1B880133CB
:1094EC009AB2019B1A800023184604B0704700B54D
:1094FC008FB0039001930B468DF80B3013468DF80B
:10950C000A3000238DF83330109B1B88ADF83030B7
:10951C0000230D9371E0039B5A680D9B9B001A442A
:10952C0005AB106818600DF11B0105AB0022184645
:10953C00FFF7E4FD0A900A9B0993099B002B01D0CD
:10954C00099B7CE09DF81B309DF80A209A4251D172
:10955C009DF83330002B01D0002300E002238DF85E
:10956C002330109B1B881A469DF81B301A449DF81B
:10957C0023301A44BDF844309A4201DD0C235EE0DE
:10958C009DF8333083F00103DBB2002B16D0109B17
:10959C001B8801339AB2109B1A80109B1B881A46A9
:1095AC00019B13449DF80B201A70109B1B880133F0
:1095BC009AB2109B1A8001238DF83330109B1B88B4
:1095CC001A46019B1A440DF11B0105AB1846FFF717
:1095DC0095FD0A900A9B0793079B002B01D0079BD4
:1095EC002DE0109B1A889DF81B309BB213449AB245
:1095FC00109B1A800D9B01330D93039B1B881A46FD
:10960C000D9B934287DB9DF83330002B16D0109BBB
:10961C001A88BDF83030D31A9BB2013BADF82E300E
:10962C00BDF82E30FF2B01D90C2308E0BDF83030EB
:10963C00019A1344BDF82E20D2B21A70002318469A
:10964C000FB05DF804FB00B58BB0059003930B468F
:10965C008DF8133013468DF812309DF81310BDF8A9
:10966C00343001930C9B0093039B02220598FFF767
:10967C003EFF0990099B0893089B002B01D0089B87
:10968C0014E09DF81210BDF8343001930C9B00933C
:10969C00039B10220598FFF72AFF0990099B07935B
:1096AC00079B002B01D0079B00E0002318460BB052
:1096BC005DF804FB82B00190019B1B88052B0AD935
:1096CC00019B1B88B3F5486F07D9019B1B884FF68C
:1096DC00FF72934201D0072325E0019B5B88052B89
:1096EC000AD9019B5B88B3F5486F07D9019B5B884E
:1096FC004FF6FF72934201D0072314E0019B1B88A5
:10970C004FF6FF7293420DD0019B5B884FF6FF72B0
:10971C00934207D0019B1A88019B5B889A4201D91E
:10972C00072300E00023184602B0704700B587B04D
:10973C00039002910192ADF80230019B1B889A1D97
:10974C00BDF802309A4201D90C234DE00398FFF783
:10975C00B1FF0590059B0493049B002B01D0049B47
:10976C0042E0019B1B881A46029B134405221A7087
:10977C00019B1B8801339AB2019B1A80019B1B88A9
:10978C001A46029B134412221A70019B1B88013348
:10979C009AB2019B1A80039B1A88019B1B8819465D
:1097AC00029B0B4419461046FFF7ACFC03461946C6
:1097BC00019B1A888BB213449AB2019B1A80039BAB
:1097CC005A88019B1B881946029B0B44194610466C
:1097DC00FFF798FC03461946019B1A888BB2134479
:1097EC009AB2019B1A800023184607B05DF804FB5F
:1097FC0000B587B0039002910192ADF80230039B43
:10980C009B8802330593019B1B881A46059B1344C6
:10981C009A1CBDF802309A4201D90C2354E0059BE6
:10982C00FE2B01D90C234FE0059BDAB2019B1B8860
:10983C001946029B0B440132D2B21A70019B1B8851
:10984C0001339AB2019B1A80019B1B881A46029B1A
:10985C001344FF221A70019B1B8801339AB2019B9F
:10986C001A80039B1A88019B1B881946029B0B4488
:10987C0019461046FFF746FC03461946019B1A8809
:10988C008BB213449AB2019B1A80039B9B88002BCA
:10989C0019D0039B9B68002B01D1072314E0019B7B
:1098AC001B881A46029B9818039B9968039B9B88FC
:1098BC001A460FF0E3FF019B1A88039B9B88134405
:1098CC009AB2019B1A800023184607B05DF804FB7E
:1098DC0000B589B0039002910192ADF80230039B60
:1098EC009B6A002B01D1072372E000238DF81F30F7
:1098FC0066E0039B996A9DF81F2013465B00134496
:10990C009B000B440693069B9B8802330593059B97
:10991C00FE2B01D90C235BE0059BDAB2019B1B8863
:10992C001946029B0B440132D2B21A70019B1B8860
:10993C0001339AB2019B1A80019B1B881A46029B29
:10994C00134416221A70019B1B8801339AB2019B97
:10995C001A80069B1A88019B1B881946029B0B4494
:10996C0019461046FFF7CEFB03461946019B1A8891
:10997C008BB213449AB2019B1A80069B9B88002BD6
:10998C0019D0069B9B68002B01D1072320E0019B7B
:10999C001B881A46029B9818069B9968069B9B8805
:1099AC001A460FF06BFF019B1A88069B9B88134489
:1099BC009AB2019B1A809DF81F3001338DF81F302D
:1099CC00039B93F82C309DF81F209A4291D30023CF
:1099DC00184609B05DF804FB00B595B005900491EC
:1099EC00039200231393039B1B88ADF84A30039B0F
:1099FC0000221A80059B93F82D30002B0ED0BDF859
:109A0C004A301A4603990498FFF792FB1390139B64
:109A1C001193119B002B01D0119BD8E0059B9B78D7
:109A2C00002B0ED0BDF84A301A4603990498FFF764
:109A3C0090FC1390139B1093109B002B01D0109B48
:109A4C00C5E0059BDB78002B10D0059BDB7858B26A
:109A5C00BDF84A30039A0499FFF7CBFC1390139B83
:109A6C000F930F9B002B01D00F9BB0E0059B5B6805
:109A7C00002B11D0059B5B6893F90000BDF84A30B0
:109A8C00039A0499FFF7F4FC1390139B0E930E9B0F
:109A9C00002B01D00E9B9AE0059B1B89002B14D048
:109AAC00059B03F10800BDF84A300193039B00931A
:109ABC00049B06220221FFF7C6FD1390139B0D9306
:109ACC000D9B002B01D00D9B81E0059B1B8A002B6D
:109ADC0014D0059B03F11000BDF84A300193039B91
:109AEC000093049B07220321FFF7ADFD1390139BFA
:109AFC000C930C9B002B01D00C9B68E0059B1B8BE3
:109B0C00002B14D0059B03F11800BDF84A300193CB
:109B1C00039B0093049B15221421FFF794FD1390D3
:109B2C00139B0B930B9B002B01D00B9B4FE0059BC6
:109B3C001B6A002B0FD0059B186ABDF84A30039A9C
:109B4C000499FFF7F3FD1390139B0A930A9B002BC8
:109B5C0001D00A9B3BE0059B5B6A002B0FD0059B59
:109B6C00586ABDF84A30039A0499FFF741FE1390E6
:109B7C00139B0993099B002B01D0099B27E0059BA4
:109B8C0093F82C30002B0ED0BDF84A30039A049970
:109B9C000598FFF79DFE1390139B0893089B002BD1
:109BAC0001D0089B13E0059B1B78002B0ED0BDF851
:109BBC004A30039A04990598FFF723FB1390139BE3
:109BCC000793079B002B01D0079B00E0139B1846C3
:109BDC0015B05DF804FB86B0039001921A460B4653
:109BEC00ADF80A3013468DF80930039B002B02D0D8
:109BFC00019B002B01D100235CE00023ADF8163053
:109C0C000CE0BDF81630039A13441B789AB2BDF8D9
:109C1C00163013449BB20133ADF81630BDF8163034
:109C2C005A1CBDF80A309A420FDA019B1B88BDF80A
:109C3C0016209A42E5D3BDF816300133039A13442B
:109C4C001B789DF809209A42DBD1BDF81620BDF88F
:109C5C000A309A4201D300232CE0BDF816300233AF
:109C6C00ADF81430BDF81630039A13441B78002B52
:109C7C0008D0BDF81630039A13441B789BB2013BF5
:109C8C009BB200E00023ADF81230BDF81230002B6F
:109C9C0008D0BDF81420BDF812301A44BDF80A30B3
:109CAC009A4201DD002305E0019BBDF814201A80C7
:109CBC00BDF81230184606B0704700B585B001905B
:109CCC000B46ADF8023013468DF801300023ADF889
:109CDC000C309DF8013003AABDF802100198FFF773
:109CEC007AFF0346ADF80E30BDF80E30002B01D1D3
:109CFC00002304E0BDF80C301A46019B13441846AF
:109D0C0005B05DF804FB72DF704700BF184673DFC7
:109D1C00704700BF184674DF704700BF184682B00A
:109D2C000190019B93F83034184602B0704784B010
:109D3C000190002303930AE0019A039B13441B78C0
:109D4C00002B01D0012306E0039B01330393039BFB
:109D5C00052BF1D90023184604B0704782B0034696
:109D6C008DF807309DF807305A1C074B83FB021304
:109D7C005910D317C91A0B469B000B44D11ACBB2FE
:109D8C00184602B0704700BF6766666682B00190E5
:109D9C000091009BDB7B012B04D1009B9A88019BDB
:109DAC00A3F8242400BF02B0704700B585B0019021
:109DBC000091019B002283F82E24009B9A88019B22
:109DCC00B3F824349A4216D1019B1B7983F001031A
:109DDC00DBB2002B0FD00121019800F0B1FA0390F7
:109DEC00039B002B07D0019B9B6B002B03D0019B8B
:109DFC009B6B0398984700BF05B05DF804FB00B55A
:109E0C0085B001900091009B1B88262B1ED1009BD6
:109E1C001B7A012B03D0009B1B7A022B17D1019BC1
:109E2C009B781846FFF79AFF03461946019800F0F5
:109E3C0087FA0390039B002B09D0019B9B6B002B93
:109E4C0005D0019B9B6B0398984700E000BF05B0C1
:109E5C005DF804FB00B585B001900B468DF803301E
:109E6C00019B03F227431846FFF761FF03468DF869
:109E7C000F309DF80330013B032B33D801A252F86D
:109E8C0023F000BFA19E0200C59E0200D99E0200D5
:109E9C00E59E0200019B9B79002B0DD0019B93F852
:109EAC00243083F00103DBB2002B05D09DF80F307A
:109EBC00002B01D0012316E0019BDB79002B05D090
:109ECC009DF80F30002B01D002230CE0019B1B7A74
:109EDC00002B01D0032306E0019B5B7A002B01D001
:109EEC00042300E00023184605B05DF804FB00BF16
:109EFC0082B001900091019B012283F83120019BDB
:109F0C000022C3F82024019B03F22642009B5A60D6
:109F1C00009B00229A60009B02221A70009B8022F8
:109F2C009A810023184602B0704782B001900091CC
:109F3C00019B022283F83120019B93F82430002BE3
:109F4C0003D0009B07221A7002E0009B03221A70B8
:109F5C00019B1B699AB2009B9A81019B0022C3F85A
:109F6C002024019B03F22642009B5A60019BDA6875
:109F7C00009B9A600023184602B0704700B583B06E
:109F8C000190019B5B79002B0FD0019B93F82E3431
:109F9C0083F00103DBB2002B07D00198FFF7BFFE63
:109FAC000346002B01D0012300E0002303F0010342
:109FBC00DBB2184603B05DF804FB00B585B0019028
:109FCC000B468DF80330019BD3F81004019BB3F8BA
:109FDC00143401221946FFF770FE0390039B002BEB
:109FEC0003D0039B9DF803201A70019B03F15400CE
:109FFC00019B03F58261019B3C331A46FFF783FEFC
:10A00C000346184605B05DF804FB00B585B0019019
:10A01C000091019B5A69009B9A60019B9B699AB2C3
:10A02C00009B9A81019B93F82430002B04D0019B58
:10A03C00062283F83C2003E0019B012283F83C209C
:10A04C000198FFF79BFF0346002B13D0009B0222C5
:10A05C001A7504210198FFF7B0FF0390039B02933C
:10A06C00029B002B01D0029B0FE0019B052283F881
:10A07C00312003E0019B032283F83120019B03F57F
:10A08C008262019BC3F820240023184605B05DF8BA
:10A09C0004FB00B585B001900091019BDA69009B2F
:10A0AC009A60019B1B6A9AB2009B9A81019B93F860
:10A0BC002430002B04D0019B062283F83C2003E0C3
:10A0CC00019B012283F83C200198FFF757FF0346C0
:10A0DC00002B13D0009B02221A7504210198FFF764
:10A0EC006CFF0390039B0293029B002B01D0029BFD
:10A0FC000FE0019B062283F8312003E0019B042230
:10A10C0083F83120019B03F58262019BC3F8202464
:10A11C000023184605B05DF804FB82B00190019B4A
:10A12C009B78002B06D0019B93F82030002B01D09C
:10A13C0000230AE0019B9B6A042B03D0019B5B6A02
:10A14C00042B01D1002300E00123184602B0704714
:10A15C0084B00190019B93F82430002B03D0EE23A4
:10A16C00ADF80E3002E01F23ADF80E30BDF80E3006
:10A17C00184604B0704782B001900B468DF803303E
:10A18C00019B9DF8032083F8302000BF02B070477C
:10A19C0030B587B001900091009B002B02D0019B41
:10A1AC00002B01D10E23B8E0009B78331846FFF743
:10A1BC00B4FF034683F00103DBB2002B01D007236D
:10A1CC00ABE0019B00229A70019A009B141D03F1D5
:10A1DC0078050FCD0FC40FCD0FC495E8070084E8A8
:10A1EC000700019B002283F83020009BD3F8A420A9
:10A1FC00019B5A63009BD3F8A820019B9A63019B97
:10A20C004FF6FF72A3F82424019B03F58262019B95
:10A21C00C3F82024019B03F2264307220021184691
:10A22C000FF062FB019B1B7883F00103DBB2002B68
:10A23C0003D0019BFF2283F85420019B03F15502AC
:10A24C00019BC3F810240198FFF782FF03461A46BE
:10A25C00019BA3F814240098019B03F15501019B69
:10A26C0003F214431A46FFF7B7FB0590059B0493C2
:10A27C00049B002B01D0049B4FE0019B03F2312285
:10A28C00019BC3F818240198FFF762FF03461A4696
:10A29C00019BA3F81C24009B03F13C00019BD3F809
:10A2AC001814019B03F21C431A46FFF795FB05900B
:10A2BC00059B0393039B002B01D0039B2DE0019B7B
:10A2CC00012283F85120019B9B699AB2019BA3F850
:10A2DC004820019B012283F83C20019B00221A6438
:10A2EC00019B002283F85020019B5A69019B5A6400
:10A2FC00019B03F15400019B3C331A460021FFF7EC
:10A30C0002FD0590059B0293029B002B01D0029B42
:10A31C0003E0019B01221A70059B184607B030BD63
:10A32C0082B00190019B1B68012B03D0019B1B6821
:10A33C00022B01D1012300E00023184602B0704724
:10A34C0000B585B001900B468DF80330019B1B784E
:10A35C0083F00103DBB2002B01D0082309E1019B40
:10A36C009DF803209A70019B03F2264307220021DB
:10A37C0018460FF0B9FA019B9B79002B03D0019B77
:10A38C009B78012B0FD0019BDB79002B03D0019B19
:10A39C009B78012B07D0019BDB79002B14D0019B00
:10A3AC009B78022B10D1019B5B6B002B08D0019B7F
:10A3BC00012283F82D24019B5B6B0820984703E056
:10A3CC00019B002283F82D249DF803301946019837
:10A3DC00FFF740FD03461A46019B9A70019B5B6B8D
:10A3EC00002B20D0019B9B78032B03D0019B9B78E7
:10A3FC00042B18D1019B5B79002B14D0019B93F893
:10A40C002E3483F00103DBB2002B0CD0019B002215
:10A41C0083F83024019B012283F82F24019B5B6B72
:10A42C000720984703E0019B002283F82F24019B0F
:10A43C003C331822002118460FF056FA019B0122DA
:10A44C0083F83C20019B2C331846FFF769FF034629
:10A45C00002B06D0019BDB6ADAB2019B83F85120FA
:10A46C0003E0019B012283F85120019B93F82430D7
:10A47C00002B12D0019B28331846FFF751FF0346DF
:10A48C00002B06D0019B9B6ADAB2019B83F8522009
:10A49C0003E0019B012283F85220019B002283F8E8
:10A4AC005020019B9B78042B31D801A252F823F049
:10A4BC0011A50200D1A40200E1A40200F1A4020043
:10A4CC0001A50200019B3C3319460198FFF710FDD2
:10A4DC0003901DE0019B3C3319460198FFF725FDC5
:10A4EC00039015E0019B3C3319460198FFF78DFD55
:10A4FC0003900DE0019B3C3319460198FFF7C9FD11
:10A50C00039005E0019B002283F8312000E000BF9E
:10A51C00019B9B78002B20D0019B03F15400019BE5
:10A52C00D3F82014019B3C331A46FFF7ECFB039045
:10A53C00039B002B01D0039B1BE0019B93F8542041
:10A54C00019B93F8303019461046FFF7E0FB03905F
:10A55C00039B002B01D0039B0BE0019B5B6B002B3F
:10A56C0006D0019B5B6B019A92F8312010469847FC
:10A57C000023184605B05DF804FB00BF00B585B09C
:10A58C0001900091009B0393019B1B88262B10D0FC
:10A59C00262B13DC102B02D0112B05D00EE00199C9
:10A5AC000398FFF7F3FB0AE001990398FFF7FDFB13
:10A5BC0005E001990398FFF722FC00E000BF00BF03
:10A5CC0005B05DF804FB00B585B00190019B93F8D4
:10A5DC0054301846FFF79FFB019B012283F82E2471
:10A5EC00019B002283F83024019B002283F8502029
:10A5FC0006210198FFF7E1FC0390039B0293029B59
:10A60C00002B01D0029B12E0019B9B78194601980C
:10A61C00FFF796FE0390039B002B07D0019B9B6BCF
:10A62C00002B03D0019B9B6B039898470023184683
:10A63C0005B05DF804FB75DF704700BF184676DF88
:10A64C00704700BF18467ADF704700BF18467BDFA3
:10A65C00704700BF1846000084B00346ADF80630C2
:10A66C000023039316E00F49039A13469B001344EF
:10A67C009B000B441B88BDF806209A4207D1039A15
:10A68C0013469B0013449B00064A134406E0039BAD
:10A69C0001330393039B002BE5D00023184604B031
:10A6AC00704700BF5028002082B001900B46ADF8D7
:10A6BC000230019BBDF802201A80019B00221A7205
:10A6CC00019B054903F10A020B4603CB1060516054
:10A6DC0000BF02B0704700BF8028002082B00190FC
:10A6EC00019B4FF6FF721A8000BF02B0704788B012
:10A6FC000390029111461A460B46ADF806301346EC
:10A70C00ADF80430039B9B881A46BDF80630134401
:10A71C000793039B9B881946039B9B88BDF80620D7
:10A72C00934228BF13469BB2CB1A0693039BDB883C
:10A73C001A46BDF8043013440593039BDB88194675
:10A74C00039BDB88BDF80420934228BF13469BB2C1
:10A75C00CB1A0493029B5A88039B1B889A4205D3FD
:10A76C00029B5A88039B5B889A4201D900231CE008
:10A77C00029B9B881A46069B934205D8029B9B889A
:10A78C001A46079B934201D200230EE0029BDB8802
:10A79C001A46049B934205D8029BDB881A46059BFC
:10A7AC00934201D2002300E00123184608B0704701
:10A7BC0000B583B00190064B9B69002B03D0044B72
:10A7CC009B690198984700BF03B05DF804FB00BF7C
:10A7DC006428002000B585B003460091ADF8063022
:10A7EC00BDF8063000991846FFF725FF0390039B30
:10A7FC00002B05D0039B112B02D00398FFF7D8FF39
:10A80C00039B002B0CBF01230023DBB2184605B0C1
:10A81C005DF804FB00B589B00190019B0793079B81
:10A82C009BB21846FFF718FF0690069B002B42D0F0
:10A83C00069B1A7A224B1B7B9A4215D2079B9AB223
:10A84C00069B0A3319461046FFF7C4FF03468DF8E2
:10A85C0013309DF81330002B2DD0069B1B7A01333F
:10A86C00DAB2069B1A7226E0069B00221A72144B6F
:10A87C001B7C002B0FD0079B9BB23B211846FFF78C
:10A88C00DEFE0590059B002B05D0059B082B02D006
:10A89C000598FFF78DFF0A4B5B69002B0BD000234B
:10A8AC008DF80C30079B9BB2ADF80E30044B5B69F6
:10A8BC0003AA1046984700BF09B05DF804FB00BF1F
:10A8CC006428002030B587B00190019B002B01D18A
:10A8DC000E2353E02B4A019B14461D460FCD0FC48B
:10A8EC0095E8070084E80700264B274A1A60019B6D
:10A8FC001B68002B11D0019B1B681846FFF7A3FEA9
:10A90C000490049B002B01D0049B37E0019B1A6838
:10A91C001D4B1068516803C308E01B48FFF797FEF6
:10A92C000490049B002B01D0049B27E0002305938B
:10A93C0020E0059A13469B0013449B00134A1344D2
:10A94C0003930398FFF7CAFE059B5B01104A1A4458
:10A95C00039B5A60039B04330E4A0021184608F0EF
:10A96C001BFB0490049B002B01D0032306E0059BEA
:10A97C0001330593059B002BDBD00023184607B051
:10A98C0030BD00BF64280020802800205028002003
:10A99C003028002021A8020000B587B003460091A2
:10A9AC00ADF80630009B5B7A002B1AD1009B1B7A0A
:10A9BC00002B03D1164B5B68059302E0144B9B688C
:10A9CC000593009B5B68BDF806200599184608F0B6
:10A9DC001DFB0490049B002B16D00498FFF7E8FE97
:10A9EC0012E0009B00221A72094B5B69002B0BD002
:10A9FC0001238DF80C30BDF80630ADF80E30044B49
:10AA0C005B6903AA1046984700BF07B05DF804FBCA
:10AA1C006428002000B585B00190019BDB7B8DF88C
:10AA2C000F30019B9B88ADF80C309DF80F30012B3B
:10AA3C002CD14FF6FF70FFF70FFE0290029B002BFC
:10AA4C0003D10420FFF7B4FE21E0BDF80C30194609
:10AA5C000298FFF729FE029B03F10A00019B03F108
:10AA6C0010014FF6FF7340F2F312FFF740FE03465E
:10AA7C001A46029B5A72074BDB89002B07D1BDF893
:10AA8C000C3002991846FFF787FF00E000BF05B0B5
:10AA9C005DF804FB6428002000B587B00190019B91
:10AAAC009B88ADF81630BDF816301846FFF7D4FD6C
:10AABC000490049B002B0ED0049B5B68184608F096
:10AACC00FDFA0390039B002B02D00398FFF770FE56
:10AADC000498FFF703FE00BF07B05DF804FB00000D
:10AAEC0000B587B00190019B06330593059B1A882E
:10AAFC00194BDB899A422BD1059B5B89022B27D101
:10AB0C00019B9B88ADF81230BDF812301846FFF748
:10AB1C00A3FD0390039B002B1AD0059B0C33184606
:10AB2C0000F096FB0346002B06D0BDF812300399BB
:10AB3C001846FFF731FF0BE0039B5B68184608F0E3
:10AB4C00BDFA0290029B002B02D00298FFF730FE58
:10AB5C0000BF07B05DF804FB6428002000B585B089
:10AB6C000190019B9B88ADF80E30BDF80E30184655
:10AB7C00FFF772FD0290029B002B15D0029B03F194
:10AB8C000A00019B03F108014FF6FF7340F2F31228
:10AB9C00FFF7ADFD03461A46029B5A72BDF80E3004
:10ABAC0002991846FFF7F8FE00BF05B05DF804FBEC
:10ABBC0000B583B001900091019B1B88502B12D0E3
:10ABCC00502B18DC122B12D0122B14DC102B02D0B1
:10ABDC00112B04D00FE00198FFF71CFF0CE001983B
:10ABEC00FFF75AFF08E00198FFF77AFF04E001989D
:10ABFC00FFF7B4FF00E000BF00BF03B05DF804FB3B
:10AC0C0030B58FB00190009100230293009B002B74
:10AC1C001AD000230D9314E06B460D9918460AF0D8
:10AC2C0046FF0346002B09D0029B5A1C02920D9A38
:10AC3C0092B25B0038336B4423F82C2C0D9B013300
:10AC4C000D930D9B132BE7D9019B1D4602AC0FCC2A
:10AC5C000FC50FCC0FC594E8070085E807000198D5
:10AC6C000FB030BD00B583B00346ADF80630BDF86B
:10AC7C000630132B01D900230CE0BDF80630194621
:10AC8C0006480AF0BFFEBDF80630194604480AF023
:10AC9C00B9FE0123184603B05DF804FB9028002090
:10ACAC008C28002000B585B00346ADF80630002393
:10ACBC0003930DE0039B9B00094A13440433BDF836
:10ACCC000620114618460AF0D9FE039B0133039364
:10ACDC00039B1D2BEED900BF00BF05B05DF804FB34
:10ACEC008828002000B583B00346ADF80630BDF8C7
:10ACFC000630194603480AF0C1FE00BF03B05DF8E8
:10AD0C0004FB00BF9028002030B59BB0184B9B680B
:10AD1C00DB431893164B5A6818AB114618460AF0C9
:10AD2C009CFF189A6B4611461846FFF769FF0DAC4D
:10AD3C006D460FCD0FC40FCD0FC495E8070084E806
:10AD4C000700002319930BE0199B5B0068336B44DD
:10AD5C0033F8303C1846FFF7A5FF199B01331993C4
:10AD6C000D9B199A9A42EFD300BF00BF1BB030BDA8
:10AD7C008828002000B583B003468DF807309DF875
:10AD8C000730194603480AF092FE0346184603B0F2
:10AD9C005DF804FB8828002000B583B001900B46B9
:10ADAC00ADF8023013468DF801309DF80130002BC0
:10ADBC0006D0BDF80230194601980AF023FE05E0D2
:10ADCC00BDF80230194601980AF058FE00BF03B0D6
:10ADDC005DF804FB00B585B001900091019B9B8848
:10ADEC00ADF80E30019B1B88103B0A2B00F28880BB
:10ADFC0001A252F823F000BF31AE02006DAE02008A
:10AE0C000DAF02000DAF02000DAF02000DAF02003E
:10AE1C000DAF02000DAF02000DAF0200D7AE020065
:10AE2C0079AE0200FFF770FFBDF80E301846FFF741
:10AE3C0019FF034683F00103DBB2002B05D0324A25
:10AE4C00F021042007F0BAFC57E0019BDB7B022BBE
:10AE5C0053D1BDF80E3019462C480AF0D3FD4CE006
:10AE6C00BDF80E301846FFF73DFF49E0019B1B7AF9
:10AE7C00C3F30313DBB28DF80D309DF80D30032BAB
:10AE8C008CBF01230023DAB2BDF80E3019462048DE
:10AE9C00FFF782FF9DF80D30022B8CBF012300239E
:10AEAC00DAB2BDF80E3019461A48FFF775FF9DF857
:10AEBC000D30012B8CBF01230023DAB2BDF80E300C
:10AECC0019461548FFF768FF1AE0019B1B7A002B07
:10AEDC0015D1019B5B7AC3F3C003DBB2002B14BF0B
:10AEEC00012300238DF80C309DF80C20BDF80E309A
:10AEFC0019460748FFF750FF01E000BF00E000BF14
:10AF0C0000BF05B05DF804FBBC9F03009428002033
:10AF1C00A02800209C2800209828002000B583B091
:10AF2C000346ADF80630BDF80630132B01D90023CB
:10AF3C0006E0BDF80630194603480AF0B8FD034692
:10AF4C00184603B05DF804FB8C28002000B585B0D2
:10AF5C000346ADF8063000238DF80F30BDF80630EF
:10AF6C001846FFF7DBFF0346002B11D0BDF8063067
:10AF7C0019460A480AF09BFD03468DF80E309DF8E1
:10AF8C000E30002B01D0022300E001238DF80F308E
:10AF9C009DF80F30184605B05DF804FB942800208E
:10AFAC0000B585B00346ADF8063000238DF80F30A0
:10AFBC00BDF806301846FFF7B1FF0346002B11D041
:10AFCC00BDF8063019460A480AF071FD03468DF8A3
:10AFDC000E309DF80E30002B01D0022300E001232F
:10AFEC008DF80F309DF80F30184605B05DF804FB56
:10AFFC009028002000B583B00346ADF80630BDF8AC
:10B00C0006301846FFF78AFF0346002B07D0BDF821
:10B01C000630194604480AF04AFD034600E00023B6
:10B02C00184603B05DF804FB9828002000B583B0E7
:10B03C000346ADF80630BDF806301846FFF76EFF34
:10B04C000346002B07D0BDF80630194604480AF019
:10B05C002EFD034600E00023184603B05DF804FB08
:10B06C009C28002000B583B00346ADF80630BDF82F
:10B07C0006301846FFF752FF0346002B07D0BDF8E9
:10B08C000630194604480AF012FD034600E000237E
:10B09C00184603B05DF804FBA028002000B583B06F
:10B0AC00182107480AF01BFD0190019B182B01D1B8
:10B0BC00182301E0019BDBB2184603B05DF804FBDA
:10B0CC008828002000B583B003460A46ADF8063048
:10B0DC0013468DF805309DF805301846FFF74AFEEB
:10B0EC000346002B16D0BDF806301846FFF716FFA6
:10B0FC000346002B0ED09DF8053006339B00084A02
:10B10C0013440433BDF80620114618460AF0CFFC50
:10B11C00034600E00023184603B05DF804FB00BFB3
:10B12C008828002000B583B00346ADF806300B46E6
:10B13C008DF8053013468DF804309DF8053018460F
:10B14C00FFF718FE0346002B15D0BDF80630184645
:10B15C00FFF7E4FE0346002B0DD09DF805300633B7
:10B16C009B00074A134404339DF80420BDF80610D5
:10B17C001846FFF711FE00BF03B05DF804FB00BFDB
:10B18C008828002000B587B0039002910192029BA1
:10B19C00002B01D100231FE000230593039B002B00
:10B1AC0019D00023049313E003AB049918460AF05A
:10B1BC007EFC0346002B08D0049B9AB2029B01999B
:10B1CC0010469847059B01330593049B0133049368
:10B1DC00049B132BE8D9059B184607B05DF804FBBC
:10B1EC0000B585B00346029101928DF80F309DF8A1
:10B1FC000F301846FFF7BEFD034683F00103DBB2A8
:10B20C00002B01D000230CE09DF80F30074A0633C9
:10B21C009B0013445B68019A02991846FFF7B2FF32
:10B22C000346184605B05DF804FB00BF88280020D3
:10B23C0082B00190019B1B781AB2019B01331B78E1
:10B24C001B021BB213431BB29BB2184602B07047D1
:10B25C0000B585B001900198FFF7EAFF0346ADF801
:10B26C000E30BDF80E3003F00103002B14BF012388
:10B27C000023DBB2184605B05DF804FBA0DF704775
:10B28C0000BF1846A1DF704700BF1846ADDF7047FE
:10B29C0000BF1846B3DF704700BF1846B4DF7047D5
:10B2AC0000BF184600B583B00190019B002B03D161
:10B2BC0006497220FBF798FB019B00221A60BFF332
:10B2CC005F8F00BF00BF03B05DF804FB34A0030028
:10B2DC0000B585B00190019B002B03D10A49852054
:10B2EC00FBF782FB012101980AF058FC0390BFF395
:10B2FC005F8F00BF039B002B0CBF01230023DBB22D
:10B30C00184605B05DF804FB34A0030000B583B00B
:10B31C000190019B002B03D10A499220FBF764FB9F
:10B32C00019B1B68012B03D006499320FBF75CFBA8
:10B33C00BFF35F8F00BF019B00221A6000BF03B0F8
:10B34C005DF804FB34A00300024B00221A7000BF0E
:10B35C00704700BF0429002000B585B00190019B07
:10B36C005B88184601F0ECFA03461A46019B9A805A
:10B37C000023039308E0084A039B52F823300198FA
:10B38C009847039B01330393039B002BF3D000BF1F
:10B39C0000BF05B05DF804FB0423002082B00190CF
:10B3AC00019B9B79012B0BD1019B1B79012B07D1A5
:10B3BC00019B5B8842F60212934201D1012300E00B
:10B3CC00002303F00103DBB2184602B0704700B54E
:10B3DC0089B003460091ADF8063003AB00221A6029
:10B3EC005A609A60DA601A6108238DF80C30BDF847
:10B3FC000630ADF80E30009B059303AB1846FFF7F3
:10B40C00ABFF00BF09B05DF804FB000010B58AB0BB
:10B41C000346ADF8063000238DF8273003AB00222D
:10B42C001A605A609A60DA601A61BDF80630ADF89D
:10B43C000E30BDF806304FF6FF72934261D0BDF866
:10B44C000630184600F0C6FF0890089B43F2020233
:10B45C0093424BD0089B43F2020293422DD8089B97
:10B46C00112B11D0089B112B27D8089B002B03D034
:10B47C00089B0B2B0CD020E00F238DF80C3003AB6A
:10B48C001846FFF769FF32E001238DF827302EE0D4
:10B49C0010238DF80C301C4A1C4BD31ADB081B04F0
:10B4AC0043F00203BDF80620194918460CF020FEA3
:10B4BC0003AB1846FFF750FF19E0134A134BD31A8E
:10B4CC00DB081B0443F0010408980CF04DF903460B
:10B4DC001A46BDF806300F4920460CF01AFEBDF88E
:10B4EC00063008991846FFF772FF00E000BF0A4BC0
:10B4FC0019789DF82720BDF806301846FFF712FE84
:10B50C0000E000BF0AB010BDBC9A0300449A0300CF
:10B51C0080A0030000A103000D29002000B583B01A
:10B52C0003460A46ADF8063013468DF80530064B37
:10B53C0019789DF80520BDF806301846FFF7F2FD86
:10B54C0000BF03B05DF804FB0C29002010B58AB0D5
:10B55C000346ADF8063000238DF8273000238DF814
:10B56C002630BDF80630184600F04CFE0890089BBB
:10B57C0043F20202934258D0089B43F202029342D8
:10B58C003AD8089B862B17D0089B862B34D8089B5F
:10B59C00112B0DD0089B112B2ED8089B002B03D000
:10B5AC00089B0B2B41D027E001238DF826303DE082
:10B5BC0001238DF8273039E003AB00221A605A6062
:10B5CC009A60DA601A6107238DF80C30BDF80630EA
:10B5DC00ADF80E301C4A1D4BD31ADB081B0443F08C
:10B5EC000203BDF806201A4918460CF081FD03AB86
:10B5FC001846FFF7B1FE19E0134A144BD31ADB08B7
:10B60C001B0443F0010408980CF0AEF803461A46EC
:10B61C00BDF806300F4920460CF07BFDBDF8063016
:10B62C0008991846FFF7D3FE00E000BF9DF82720CD
:10B63C00BDF8063011461846FFF770FF9DF826300E
:10B64C0018460AB010BD00BFBC9A0300449A030010
:10B65C0054A103008CA1030000B589B003460091EE
:10B66C00ADF8063000238DF81F300DF11603184687
:10B67C00FFF710FE0690069B002B04D02A494FF4CE
:10B68C009970FBF7B1F90123ADF81C3040E00223AF
:10B69C00ADF808300023ADF80A3004AB039304A9CD
:10B6AC00BDF81C3000221846FFF7F8FD0690069BEB
:10B6BC00002B01D0069B32E09DF81F3083F0010374
:10B6CC00DBB2002B09D0BDF8103042F605229342B4
:10B6DC0003D101238DF81F3015E09DF81F30002B8E
:10B6EC0011D0BDF8103042F6021293420BD1009BE0
:10B6FC00039302AABDF81C10BDF806301846FFF7DC
:10B70C00C5FD03460BE0BDF81C300133ADF81C3011
:10B71C00BDF81630BDF81C209A42B8D30523184644
:10B72C0009B05DF804FB00BFCCA1030010B58AB0D2
:10B73C000346ADF8063001238DF8273000238DF831
:10B74C002630BDF80630184600F0F4FE0890089B31
:10B75C0043F2014293426AD0089B43F20142934266
:10B76C006BD8089B112B29D8089B112B65D801A2EB
:10B77C0052F823F0D5B7020047B8020047B80200D0
:10B78C0047B8020047B8020047B8020021B80200CF
:10B79C0047B8020001B8020047B8020047B80200DF
:10B7AC0047B8020047B8020047B8020047B8020089
:10B7BC0047B8020047B8020079B80200089B43F270
:10B7CC000202934254D038E003AB00221A605A6054
:10B7DC009A60DA601A6111238DF80C30BDF80630CE
:10B7EC00ADF80E3001238DF8263003AB1846FFF769
:10B7FC00B3FD3EE00DF10A02BDF8063011461846C5
:10B80C00FFF72AFF0890089B002B03D1BDF80A30E4
:10B81C00002B2ED100238DF82730BDF806301846AA
:10B82C0001F08EF80346184600F0CCFE21E0BDF87E
:10B83C0006301846FFF7EAFD1BE0184A184BD31ADE
:10B84C00DB081B0443F0010408980BF08DFF034642
:10B85C001A46BDF80630134920460CF05AFCBDF8C8
:10B86C00063008991846FFF7B2FD02E000BF00E071
:10B87C0000BF0D4B19789DF82720BDF806301846EF
:10B88C00FFF750FC094B19789DF82620BDF80630BF
:10B89C001846FFF747FC00BF0AB010BDBC9A030066
:10B8AC00449A030050A203000E2900200F29002007
:10B8BC0000B583B003460091ADF80630BDF80630F4
:10B8CC001846FFF7A3FD00BF03B05DF804FB0000B2
:10B8DC0008B5044B1B78002203491846FFF780FC7F
:10B8EC0000BF08BD0D290020BDB8020000B583B013
:10B8FC0003460091ADF806300A48FFF7E9FC034611
:10B90C00002B0CD0BDF806301846FFF71FFE03467F
:10B91C00002B03D10348FFF7F9FC00E000BF03B094
:10B92C005DF804FB0829002000B583B003460091A4
:10B93C00ADF806300B4B1A78BDF806301146184698
:10B94C00FFF7C0FB034683F00103DBB2002B04D0EE
:10B95C00BDF806301846FFF7E9FE00BF03B05DF8EE
:10B96C0004FB00BF0F29002008B5044B1B780022F4
:10B97C0003491846FFF734FC00BF08BD0E29002010
:10B98C0035B9020000B583B00346ADF80630BDF8FA
:10B99C000630184600F0AAFD0346002B07D0064BD4
:10B9AC001978BDF8063001221846FFF7BBFB00BF23
:10B9BC0003B05DF804FB00BF0E29002000B587B072
:10B9CC0003460091ADF8063004AB04220021184662
:10B9DC000DF08AFF42F6A623ADF8103001238DF846
:10B9EC0012300D4B1B68039303AA04A9BDF8063053
:10B9FC001846FFF743FC0590059B002B07D1074B1E
:10BA0C001978BDF8063001221846FFF78BFB00BFF2
:10BA1C0007B05DF804FB00BF90A2030011290020C1
:10BA2C0000B585B00346ADF80630BDF806301846B3
:10BA3C0000F086FF0346184602AA0023092101F0F4
:10BA4C00FDFF0346052B07D1054B1978BDF80630D1
:10BA5C0001221846FFF766FB00BF05B05DF804FB3A
:10BA6C001029002000B583B00B4B1B7800220B492A
:10BA7C001846FFF7B5FB0190019B002B07D1084B33
:10BA8C001B78002207491846FFF7AAFB019000BF5C
:10BA9C0003B05DF804FB00BF0C290020F9B80200CC
:10BAAC0010290020C9B9020000B583B00190019B98
:10BABC001B78002B11D1019B5B881846FFF7A6FC65
:10BACC00019B5B881846FFF75DFF019B5B8818465E
